:020000040800F2
:10000000901C0020610500083D0200083F02000826
:100010004B020008570200086302000800000000BD
:100020000000000000000000000000006F02000857
:100030007102000800000000770500087302000844
:100040007B0500087B0500087B050008810200088D
:100050007B0500087B0500087F0200087B0500087F
:100060007B0500087B0500087B0500087B05000870
:100070007B0500087B0500087B0500087B05000860
:100080007B0500087B0500087B0500087B05000850
:100090007B0500087B0500087B0500087B05000840
:1000A0007B0500087B0500087B0500087B05000830
:1000B000EB2F0008396700087B0500087B05000866
:1000C0007B0500087B0500087B0500087B05000810
:1000D0007B050008FF6B00087B0500081B45000836
:1000E0007B0500087B0500087B05000800F002F88E
:1000F00000F094F80AA090E8000C82448344AAF12E
:100100000107DA4501D100F089F8AFF2090EBAE82B
:100110000F0013F0010F18BFFB1A43F0010318473B
:10012000ACB60000CCB60000103A24BF78C878C145
:10013000FAD8520724BF30C830C144BF04680C60ED
:10014000704700000023002400250026103A28BF35
:1001500078C1FBD8520728BF30C148BF0B60704739
:100160006E2907F06382702906F0018766290AF07C
:10017000728165290AF06F8167290AF06C81612913
:100180000AF06B8103681B0A28BF41F080016929CE
:1001900006F07286642906F06F86752906F06C8673
:1001A0006F2907F05E85782906F0CD86E92907F0EA
:1001B000F984E42907F0F684F52907F0F384EF29A0
:1001C00007F05B85F82906F0CC860368DB0928BFB9
:1001D00041F08001632907F07A84732907F07F8456
:1001E000E32907F08987F32907F08E8700207047FD
:1001F0001FB59DE8030007F06DF907F04DFD040001
:100200000020002109F0A8FA401C606000200021B5
:1002100009F0B8FAE0601FBD10B510BD08F00EF887
:100220001146FFF7E5FF02F0B0FC08F02CF803B42C
:10023000FFF7F2FF03BC08F09DF80000704711A122
:100240001F4802F0E3FA00BFFEE71EA11C4802F0BF
:10025000DDFA00BFFEE72AA1194802F0D7FA00BF75
:10026000FEE736A1164802F0D1FA00BFFEE770475C
:10027000704742480068401C40490860704770471A
:10028000704700000D0A2A2A2A2A2A2A2A2A2A2AFC
:100290002A2A2A2A2A2A2A2A2A4861726446617549
:1002A0006C745F48616E646C65722A2A2A2A2A2A55
:1002B0002A2A2A2A2A2A2A2A2A2A2A2A2A0D0A0005
:1002C000004400400D0A2A2A2A2A2A2A2A2A2A2AEF
:1002D0002A2A2A2A2A2A2A2A2A4D656D4D616E6108
:1002E00067655F48616E646C65722A2A2A2A2A2A29
:1002F0002A2A2A2A2A2A2A2A2A2A2A2A2A0D0A00C5
:100300000D0A2A2A2A2A2A2A2A2A2A2A2A2A2A2A8A
:100310002A2A2A2A2A4275734661756C745F4861DD
:100320006E646C65722A2A2A2A2A2A2A2A2A2A2AEA
:100330002A2A2A2A2A2A2A2A0D0A00000D0A2A2AEB
:100340002A2A2A2A2A2A2A2A2A2A2A2A2A2A2A2A0D
:100350002A55736167654661756C745F48616E64A8
:100360006C65722A2A2A2A2A2A2A2A2A2A2A2A2A28
:100370002A2A2A2A2A2A0D0A000000002C0000201E
:100380000CB50020019000906C48006840F480306B
:100390006A49086000BF6948006800F400300090B6
:1003A0000198401C0190009818B90198B0F5A06F11
:1003B000F1D16248006800F4003010B101200090D3
:1003C00001E0002000900098012843D15C480068BB
:1003D00040F010005A4908600846006820F0030009
:1003E00008600846006840F0020008605348406812
:1003F000524948600846406848600846406840F4F2
:10040000806048600846406820F47C1048600846D8
:10041000406840F4E81048600846006840F080708A
:10042000086000BF4548006800F000700028F9D05F
:100430004248406820F00300404948600846406850
:1004400040F00200486000BF3C48406800F00C00EB
:100450000828F9D10CBD10B5FFF792FF10BD10B5FB
:100460003648006840F0010034490860084640689A
:10047000344908403149486008460068324908401C
:100480002E4908600846006820F48020086008466D
:10049000406820F4FE0048604FF41F008860FFF7BA
:1004A000DAFF4FF000602949086010BD10B5002147
:1004B00000200022214B5B6803F00C0121B10429CC
:1004C00006D0082928D107E0214B224C236027E0E1
:1004D0001F4B204C236023E0184B5B6803F4701023
:1004E000164B5B6803F48032022303EB904022B981
:1004F000194B4343174C23600DE0104B5B6803F42A
:10050000003323B1144B4343124C236003E0104BE0
:100510004343104C236003E00D4B0E4C236000BF9F
:1005200000BF064B5B68C3F303130C4CE15C094B43
:100530001B68CB40074C236010BD00000010024038
:10054000002002400000FFF8FFFFF6FE08ED00E08B
:1005500000127A000000002000093D000400002085
:100560000948804709480047FEE7FEE7FEE7FEE747
:10057000FEE7FEE7FEE7FEE7FEE7FEE70448054983
:10058000054A064B704700005F040008ED000008B4
:10059000900E0020901C0020901400209014002049
:1005A00031490143314A1160704770B50021002381
:1005B0000F22C47804B32D4C246804F4E064C4F51D
:1005C000E064210AC1F10403CA40447804FA03F14B
:1005D0008478144021430901254C0678A1550478FC
:1005E00004F01F050124AC4005786D11AD0005F144
:1005F000E025C5F8004109E0047804F01F05012456
:10060000AC401C4D0678761145F8264070BD1A4A5C
:100610000A400243154B1B1F1A60704739B1134A39
:10062000121D12680243114B1B1D1A6006E00F4A8F
:10063000121D126882430D4B1B1D1A60704704285F
:1006400008D14FF0E021096941F004014FF0E022A8
:10065000116107E04FF0E021096921F004014FF03A
:10066000E0221161704700000000FA050CED00E087
:1006700000E400E080E100E080FFFF1F10B50446C9
:10068000CC48844208D10121042000F02DFB002138
:10069000042000F029FB46E0C748844208D101212C
:1006A000082000F021FB0021082000F01DFB3AE0AB
:1006B000C248844208D10121102000F015FB00211E
:1006C000102000F011FB2EE0BD48844208D101212A
:1006D000202000F009FB0021202000F005FB22E093
:1006E000B848844208D10121402000F0FDFA0021E1
:1006F000402000F0F9FA16E0B348844208D1012105
:10070000802000F0F1FA0021802000F0EDFA0AE0EC
:10071000AE48844207D10121801500F0E5FA00219E
:10072000A01500F0E1FA10BD10B50121084600F057
:10073000DBFA0021012000F0D7FA10BD2DE9F041CD
:10074000024600250026002000230024002791F8FF
:1007500003C00CF00F0591F803C00CF0100CBCF1B5
:10076000000F03D091F802C04CEA050591F800C0D3
:10077000BCF1000F31D0146800202BE04FF0010CC9
:100780000CFA00F3B1F800C00CEA03069E4220D137
:1007900083004FF00F0C0CFA03F7BC4305FA03FC7F
:1007A0004CEA040491F803C0BCF1280F06D14FF0C5
:1007B000010C0CFA00FCC2F814C00AE091F803C066
:1007C000BCF1480F05D14FF0010C0CFA00FCC2F847
:1007D00010C0401C0828D1D31460B1F800C0BCF18F
:1007E000FF0F34DD546800202EE000F1080C4FF0BC
:1007F000010808FA0CF3B1F800C00CEA03069E42A7
:1008000021D183004FF00F0C0CFA03F7BC4305FA1B
:1008100003FC4CEA040491F803C0BCF1280F05D195
:1008200000F1080C08FA0CF8C2F8148091F803C023
:10083000BCF1480F07D100F1080C4FF0010808FA8D
:100840000CF8C2F81080401C0828CED35460BDE8D4
:10085000F0814FF6FF710180022181700421C17087
:1008600070470246002093680B400BB1012000E066
:10087000002070470146886880B270470246002019
:10088000D3680B400BB1012000E000207047014607
:10089000C86880B2704701617047416170470AB112
:1008A000016100E041617047C16070474FF48032E0
:1008B0000A4382618161826182698269704702466E
:1008C0000020434B18684FF68073184040EA02102E
:1008D00008433F4B186070473E49C8617047F0B508
:1008E0000A46002300240021002500F00046B6F14E
:1008F000004F02D1364EF16901E0354E7168C0F308
:10090000034583B200F44016B6F5401F08D121F02C
:1009100070612F4E766826F070662D4F7E6012E073
:1009200000F48016B6F5801F06D1032606FA05F4FA
:10093000A14341F0706106E0460D360103FA06F668
:10094000B14341F0706122B1460D360103FA06F65B
:10095000314300F00046B6F1004F02D11C4EF16168
:1009600001E01B4E7160F0BD30B500228B071C0FFB
:100970000F2303FA04F2164B08338C1053F824307B
:100980009343134C08348D1044F8253023468C10C3
:1009900053F824308C07240F00FA04F423430C4C42
:1009A00008348D1044F8253030BD0A49DC31086028
:1009B0007047000000080140000C01400010014099
:1009C0000014014000180140001C014000200140BB
:1009D0000000014000002042DF48006840F00100B4
:1009E000DD49086008464068DC490840DA4948604B
:1009F00008460068DA490840D74908600846006898
:100A000020F4802008600846406820F4FE0048601A
:100A10004FF41F0088607047CF49096821F4803186
:100A2000CD4A11601146096821F480211160B0F5AA
:100A3000803F03D0B0F5802F0ED106E0C64909688B
:100A400041F48031C44A116007E0C349096841F4A8
:100A5000A021C14A116000E000BF00BF704710B57F
:100A600001460022002300204A11012A02D1BA4C7B
:100A7000236806E0022A02D1B74C236A01E0B64C93
:100A8000636A01F01F02012494401C400CB1012054
:100A900000E0002010BD38B50020009000240025A3
:100AA00000BF3120FFF7DBFF05460098401C009097
:100AB0000098B0F5A06F01D0002DF2D03120FFF7E3
:100AC000CEFF08B1012400E00024204638BD0146D5
:100AD0000020A14A106820F0F80040EAC100106030
:100AE0007047A04908607047024600209A4B58683A
:100AF00020F47C1042EA01031843974B586070477A
:100B000098490866704701460020934A506820F0D3
:100B100003000843506070478F48406800F00C00A5
:100B20007047014600208C4A506820F0F0000843CE
:100B30005060704701460020874A506820F4E0600A
:100B400008435060704701460020834A506820F4F3
:100B5000605040EAC1005060704729B17E4A527A25
:100B600002437D4B5A7204E07B4A527A82437A4BAD
:100B70005A7270477B49D83108607047014600209F
:100B8000754A506820F44040084350607047002187
:100B9000714A20321170704A82F82010012802D068
:100BA00004280AD104E001216B4A2032117005E0CB
:100BB0000521694A2032117000E000BF00BF704774
:100BC0006949086070476449096A0143624A1162D1
:100BD0007047654944390860704730B500210022EC
:100BE000002400235C4D6D6805F00C0121B104293F
:100BF00005D0082923D105E05C4D056022E05B4D5E
:100C000005601FE0544D6D6805F47012524D6D681B
:100C100005F48034022505EB92421CB9544D55432E
:100C200005600BE04C4D6D6805F400351DB1504D6D
:100C30005543056002E04D4D5543056002E04B4DC4
:100C4000056000BF00BF444D6D6805F0F001090963
:100C5000484D6B5C0568DD4045603F4D6D6805F4AF
:100C6000E061090A434D6B5C4568DD4085603A4DA3
:100C70006D6805F46051C90A3E4D6B5C4568DD4006
:100C8000C560354D6D6805F44041890B3A4D6B5C8C
:100C9000C568B5FBF3F5056130BD29B12E4A52692F
:100CA00002432D4B5A6104E02B4A526982432A4B7E
:100CB0005A61704729B1284A92690243264B9A61CA
:100CC00004E0254A92698243234B9A61704729B117
:100CD000214AD2690243204BDA6104E01E4AD269FC
:100CE00082431D4BDA61704729B11B4AD268024327
:100CF000194BDA6004E0184AD2688243164BDA6076
:100D0000704729B1144A12690243134B1A6104E077
:100D1000114A12698243104B1A61704712494039D7
:100D2000086070470F49C86470470B49C871704725
:100D30000948406A40F080700749486270470146A0
:100D40000020054A92680A400AB1012000E0002014
:100D50007047014988727047001002400000FFF898
:100D6000FFFFF6FE000042428004424200127A0079
:100D700000093D00140000202400002010B50446A6
:100D8000FB48844209D101218803FFF7ADFF002110
:100D90004FF48040FFF7A8FF32E0F648844209D1C3
:100DA00001214804FFF7ADFF00214FF40030FFF7A9
:100DB000A8FF25E0F048844209D101218804FFF70B
:100DC000A0FF00214FF48020FFF79BFF18E0EB48C5
:100DD000844209D10121C804FFF793FF00214FF499
:100DE0000020FFF78EFF0BE0E548844208D1012187
:100DF0000805FFF786FF00214FF48010FFF781FF01
:100E000010BD2DE9F04786B005460E460024A246E7
:100E100000BFA1460027B08900B100BF2F462C8A31
:100E20004CF6FF700440F08804432C82AC894EF6E7
:100E3000F3100440B08831890843718908430443A2
:100E4000AC81AC8A4FF6FF400440B0890443AC82C9
:100E500001A8FFF7C2FEC648874202D1DDF810A004
:100E600001E0DDF80CA0A88900F4004040B10AEBD5
:100E7000CA0000EB0A1031684900B0FBF1F807E046
:100E80000AEBCA0000EB0A1031688900B0FBF1F8E8
:100E90006420B8FBF0F004012009642101FB1089F3
:100EA000A88900F4004040B1322000EBC900B0FB3B
:100EB000F1F000F00700044308E0322000EB0910D5
:100EC0006421B0FBF1F000F00F0004432C8106B068
:100ED000BDE8F0874FF41651016000218180C18088
:100EE00001810C21418100218181704710B50246AA
:100EF0000020108A4FF2FF0318400B884C882343D0
:100F00008C882343CC8823431843108210BD0021D2
:100F1000018041808180C180704721B1828942F483
:100F20000052828104E082894DF6FF731A4082816B
:100F30007047F0B50346002400260025002040F647
:100F40006A17B94200D100BF1846C1F3421401F03C
:100F50001F06012707FA06F5012C01D10C3004E029
:100F6000022C01D1103000E014301AB107682F4371
:100F7000076002E00768AF430760F0BD1AB1838ADB
:100F80000B43838202E0838A8B4383827047028A09
:100F90004FF6F0731A400282028A0A4302827047B7
:100FA00082894FF2FF731A40828182890A438281CB
:100FB000704721B1828942F00202828104E0828975
:100FC0004FF6FD731A4082817047028A4FF6DF7335
:100FD0001A400282028A0A430282704721B1028AC1
:100FE00042F48042028204E0028A4BF6FF731A4008
:100FF00002827047C1F308028280704701468888E8
:10100000C0F308007047818941F001018181704778
:10101000028BD2B20283028B42EA01220283704722
:10102000028B02F47F420283028B0A4302837047E1
:1010300021B1828A42F02002828204E0828A4FF645
:10104000DF731A408282704721B1828A42F0100217
:10105000828204E0828A4FF6EF731A4082827047E0
:1010600021B1828A42F00802828204E0828A4FF62D
:10107000F7731A408282704721B1828942F400429C
:10108000828103E08289C2F30E028281704721B11E
:10109000828A42F40062828204E0828A4FF2FF7305
:1010A0001A4082827047828A4FF6FB731A4082820E
:1010B000828A0A438282704721B1828A42F0020208
:1010C000828204E0828A4FF6FD731A408282704762
:1010D00002460020B1F5007F00D100BF13880B400D
:1010E0000BB1012000E00020704701F40072B2F55E
:1010F000007F00D100BFCA430280704770B502462E
:10110000002400230025002040F66A16B14200D1D9
:1011100000BFC1F3421501F01F03012606FA03F3D5
:10112000012D02D19689334006E0022D02D1168AA4
:10113000334001E0968A33400C12012606FA04F48B
:101140001688344013B10CB1012000E0002070BDBE
:1011500010B50022002340F66A14A14200D100BF5E
:101160000A1201249440A3B2DC43048010BD0000A5
:10117000003801400044004000480040004C00405E
:101180000050004010B50446FE48844208D10121B9
:10119000C014FFF7A9FD0021E014FFF7A5FDC4E08E
:1011A000B4F1804F08D101210846FFF7AAFD0021C4
:1011B0000120FFF7A6FDB8E0F348844208D10121E1
:1011C0000220FFF79EFD00210220FFF79AFDACE010
:1011D000EE48844208D101210420FFF792FD00214E
:1011E0000420FFF78EFDA0E0E948844208D10121E8
:1011F0000820FFF786FD00210820FFF782FD94E01C
:10120000E448844208D101211020FFF77AFD002133
:101210001020FFF776FD88E0DF48844208D10121E5
:101220002020FFF76EFD00212020FFF76AFD7CE003
:10123000DA48844208D101214014FFF755FD00210E
:101240006014FFF751FD70E0D548844209D10121B7
:10125000C804FFF749FD00214FF40020FFF744FDCB
:1012600063E0D048844209D101210805FFF73CFD25
:1012700000214FF48010FFF737FD56E0CA48844242
:1012800009D101214805FFF72FFD00214FF400107F
:10129000FFF72AFD49E0C548844208D101214020DA
:1012A000FFF72FFD00214020FFF72BFD3DE0C04858
:1012B000844208D101218020FFF723FD00218020F6
:1012C000FFF71FFD31E0BB48844208D101218015A2
:1012D000FFF717FD0021A015FFF713FD25E0B64825
:1012E000844209D101210804FFF7FEFC00214FF4DC
:1012F0008030FFF7F9FC18E0B048844209D10121A1
:101300004804FFF7F1FC00214FF40030FFF7ECFC3C
:101310000BE0AB48844208D101218804FFF7E4FCCC
:1013200000214FF48020FFF7DFFC10BD002202886F
:10133000944B98420ED0994B98420BD0B0F1804F0D
:1013400008D0914B984205D0904B984202D0904BD8
:10135000984204D14FF68F731A404B881A438D4B35
:10136000984207D08C4B984204D04FF6FF431A4066
:10137000CB881A4302808B8883850B880385814B39
:1013800098420BD0854B984208D08B4B984205D0A1
:101390008A4B984202D08A4B984201D10B7A03863D
:1013A00001238382704770B5002400220023058C3E
:1013B0004FF6FE7635400584028C8388048B4FF609
:1013C0008F752C40B51E2C400D882C43751E2A406D
:1013D0000D892A434D882A436A4DA8420BD06F4D90
:1013E000A84208D0744DA84205D0744DA84202D03E
:1013F000734DA84213D14FF6F7752A404D892A4301
:101400004FF6FB752A408D882A434FF6FF652B4027
:101410004FF6FF552B408D892B43CD892B4383807D
:101420000483CD888586028470BD70B500240022B7
:101430000023058C4FF6EF7635400584028C8388B7
:10144000048B48F6FF752C404FF6FF452C400D8865
:101450004FF6FF7606EA05252C434FF6DF752A4046
:101460000D8906EA05152A434D8806EA05152A4323
:10147000444DA84202D0494DA8421DD14FF67F7578
:101480002A404D894FF6FF7606EA05152A434FF6A6
:10149000BF752A408D8806EA05152A434FF6FF35A9
:1014A0002B404FF2FF752B408D8906EA85052B43B3
:1014B000CD8906EA85052B4383800483CD88058783
:1014C000028470BD70B5002400220023058C4FF605
:1014D000FF6635400584028C8388848B4FF68F75B8
:1014E0002C404FF6FC752C400D882C434FF6FF55D1
:1014F0002A400D894FF6FF7606EA05252A434D88D6
:1015000006EA05252A431F4DA84202D0234DA842D2
:101510001DD14FF2FF752A404D894FF6FF7606EA3E
:1015200005252A434FF6FF352A408D8806EA052512
:101530002A434EF6FF752B404DF6FF752B408D89E3
:1015400006EA05152B43CD8906EA05152B43838052
:101550008483CD888587028470BD70B50022002306
:101560000024058C4EF6FF7635400584038C848874
:10157000828B48F6FF752A404FF6FF452A400D88BA
:1015800020E00000002C0140000400400008004062
:10159000000C0040001000400014004000340140E6
:1015A000004C014000500140005401400018004030
:1015B000001C004000200040004001400044014069
:1015C000004801404FF6FF7606EA05252A434DF60E
:1015D000FF752B400D8906EA05352B434D8806EA39
:1015E00005352B43FA4DA84202D0FA4DA84208D146
:1015F0004BF6FF752C408D894FF6FF7606EA851570
:101600002C4384808283CD88A0F84050038470BD31
:10161000828B4FF2FF331A408283828B4FF6FF7327
:1016200003EA01231A4382837047F0B50C4615463E
:10163000002200210026078C4EF6FF7C07EA0C07EB
:101640000784828B018C4FF6FF7707EA043640F659
:10165000FF473A404FF6FF7707EA05273A434FF630
:10166000FF7707EA03373A43D94FB8420ED0D94F34
:10167000B8420BD0B0F1804F08D0D74FB84205D058
:10168000D64FB84202D0D64FB84206D14DF6FF77BA
:10169000394046F48057394305E047F6FF57394053
:1016A00044F48057394382830184F0BD828B4FF626
:1016B000F3731A408283828B0A4382837047F0B5AA
:1016C0000C461546002200210026078C4FF6FF6CC1
:1016D00007EA0C070784828B018C4FF6FF7707EA35
:1016E00004264FF60C773A404FF6FF7707EA0317C8
:1016F0002F433A43B64FB8420ED0B64FB8420BD044
:10170000B0F1804F08D0B44FB84205D0B34FB842C3
:1017100002D0B34FB84206D14FF6FF57394046F4D6
:101720008077394305E04FF2FF57394044F4807722
:10173000394382830184F0BD028B4FF2FF331A409C
:101740000283028B4FF6FF7303EA01231A430283DD
:101750007047F0B50C461546002200210026078C84
:101760004FF6EF7C07EA0C070784028B018C4FF6DB
:10177000FF7707EA041640F6FF473A404FF6FF7737
:1017800007EA03373A434FF6FF7707EA05273A435C
:101790008F4FB8420ED08F4FB8420BD0B0F1804F70
:1017A00008D08D4FB84205D08C4FB84202D08C4F34
:1017B000B84206D14FF6DF77394046F0100739437B
:1017C00005E04FF65F77394044F010073943028354
:1017D0000184F0BD028B4FF6F3731A400283028B33
:1017E0000A4302837047F0B50C46154600220021DB
:1017F000068C4FF6FE773E400684028B018C4FF636
:101800000C7632407E1C06EA03162E433243704E9D
:10181000B0420ED06F4EB0420BD0B0F1804F08D026
:101820006D4EB04205D06D4EB04202D06C4EB0420B
:1018300006D14FF6FD76314044F00106314305E014
:101840004FF6F576314044F00106314302830184BE
:10185000F0BD70B505460C465D4885420ED05D482A
:1018600085420BD0B5F1804F08D05B48854205D04A
:101870005A48854202D05A48854200D100E000BF54
:10188000208850B92389A28861882846FFF7ABFFDA
:10189000E1882846FFF79EFF25E0208804280AD12A
:1018A0002389A28861882846FFF753FFE1882846EC
:1018B000FFF742FF17E0208808280AD12389A28871
:1018C00061882846FFF7FBFEE1882846FFF7EEFE19
:1018D00009E02389A28861882846FFF7A6FEE188EF
:1018E0002846FFF795FE70BD2DE9F04105460C46F0
:1018F00000260127608808B9022600E00026A0889B
:10190000012801D1022700E001272088A0B92389FE
:10191000A28861882846FFF766FFE1882846FFF71E
:1019200059FF23893A4631462846FFF712FFE188DE
:101930002846FFF701FF13E02389A2886188284623
:10194000FFF707FFE1882846FFF7F6FE23893A46AE
:1019500031462846FFF747FFE1882846FFF73AFF60
:10196000BDE8F0810A884B881A438B881A43CB88DC
:101970001A430B891A434B891A438B891A43A0F8DF
:10198000442070474FF6FF71818000210180C180A3
:101990004180017270470021018041808180C180B7
:1019A000018141818181C181704700210180418095
:1019B000012181800021C1800181704700210180C7
:1019C00041808180C1800181418181817047000017
:1019D000002C014000340140000400400008004099
:1019E000000C004021B1028842F00102028004E0B4
:1019F00002884FF6FE731A400280704731B1B0F88A
:101A0000442042F40042A0F8442005E0B0F844200D
:101A1000C2F30E02A0F8442070471AB183890B4329
:101A2000838102E083898B43838170478182704781
:101A300041EA0203A0F8483070471AB183890B438A
:101A4000838102E083898B438381704701894FF64C
:101A5000F8721140018170470A46002101894FF652
:101A60008F73194011430181704730B504460D460C
:101A700029462046FFF7F0FF208940F0070020812B
:101A800030BD2DE9F04104460D4616461F46602D37
:101A900006D13B46012231462046FFF75AFE05E0BB
:101AA0003B46012231462046FFF79DFE294620464F
:101AB000FFF7D2FF208940F007002081BDE8F081C8
:101AC00030B50C4600210189C9B24FF6FF7505EA11
:101AD0000325154325432943018130BD2DE9F041FC
:101AE00005460E4617469846002443463A46314678
:101AF0002846FFF7E5FF2C894FF6F870044044F0C4
:101B000007044FF68F70044044F070042C81BDE848
:101B1000F081F0B504460D4616461F463B46324658
:101B200029462046FFF7CCFF208940F480402081E1
:101B3000F0BD0185828270470A46002101884FF678
:101B40008F731940114301807047F0B50C4615465C
:101B50001E460021002200230189028B038C4FF6D0
:101B6000F877394021434FF6FC473A4040F20117DD
:101B70003A434FF6DD773B404FF6FF7707EA06170B
:101B80002F433B43018102830384F0BD0A460021B9
:101B9000018B4FF68F7319401143018370470A463A
:101BA0000021018B48F6FF7319404FF6FF7303EADB
:101BB00002231943018370470A460021818B4FF6A7
:101BC0008F7319401143818370470A460021818B2E
:101BD00048F6FF7319404FF6FF7303EA02231943D7
:101BE0008183704721B1028842F08002028004E0C4
:101BF00002884FF67F731A400280704721B18288B5
:101C000042F00402828004E082884FF6FB731A409F
:101C10008280704721B1828842F00802828004E00D
:101C200082884FF6F7731A408280704721B182880C
:101C300042F00102828004E082884FF6FE731A406F
:101C4000828070470A460021018B4FF6F7731940D6
:101C50001143018370470A460021018B4FF2FF7345
:101C600019404FF6FF7303EA0223194301837047BB
:101C70000A460021818B4FF6F77319401143818387
:101C800070470A460021818B4FF2FF7319404FF6CF
:101C9000FF7303EA02231943818370470A46002138
:101CA000018B4FF6FB7319401143018370470A46BD
:101CB0000021018B4FF6FF3319404FF6FF7303EA03
:101CC00002231943018370470A460021818B4FF696
:101CD000FB7319401143818370470A460021818BB1
:101CE0004FF6FF3319404FF6FF7303EA02231943FF
:101CF000818370470A460021018B4FF67F7319409C
:101D00001143018370470A460021018BC1F30E0184
:101D10004FF6FF7303EA02231943018370470A4613
:101D20000021818B4FF67F731940114381837047E7
:101D30000A460021818BC1F30E014FF6FF7303EABF
:101D400002231943818370470A460021018C4FF614
:101D5000FD7319401143018470470A460021018C2C
:101D60004FF6F77319401143018470470A4600216A
:101D7000018C4FF6DF7319404FF6FF7303EA02132D
:101D80001943018470470A460021018C4FF67F7386
:101D900019404FF6FF7303EA021319430184704799
:101DA0000A460021018C4FF6FF5319404FF6FF738E
:101DB00003EA02231943018470470A460021018C7B
:101DC0004FF2FF7319404FF6FF7303EA02231943E2
:101DD000018470470A460021018C4DF6FF731940BB
:101DE0004FF6FF7303EA023319430184704730B59D
:101DF000002301248C40A3B2048C9C430484048CF3
:101E000002FA01F5ADB22C43048430BD30B5002395
:101E100004248C40A3B2048C9C430484048C02FAF6
:101E200001F5ADB22C43048430BD70B503460020EB
:101E300000241846183001258D40ACB21D8CA543F6
:101E40001D8409B1082909D100EB6100056825F05E
:101E5000700505600568154305600EE00D1FC5F3AC
:101E60004E052844056825F4E045056005684FF6F1
:101E7000FF7606EA02263543056070BD21B102886F
:101E800042F00202028004E002884FF6FD731A401D
:101E90000280704721B1028842F00402028004E00F
:101EA00002884FF6FB731A400280704721B1828886
:101EB00042F08002828004E082884FF67F731A40ED
:101EC0008280704702884FF6F7731A4002800288BA
:101ED0000A430280704782884FF68F731A408280CF
:101EE00082880A438280704702894FF6F8731A404D
:101EF000028102890A430281704702894FF67F738B
:101F00001A40028102890A43028170478184704726
:101F10008185704781867047018770478187704748
:101F2000A0F84010704702884FF6FF431A40028025
:101F300002880A43028070470146888E7047014636
:101F4000088F70470146888F70470146B1F84000FE
:101F500070470146888C70470146088D70470246DD
:101F60000020138A0B400BB1012000E000207047D5
:101F7000CA430282704730B5024600200023002485
:101F8000158A05EA0103958905EA010413B10CB12C
:101F9000012000E0002030BDCA43028270470000EB
:101FA00001460020FE4A106800F038000843106027
:101FB0007047FB49096821F00801F94A1160114690
:101FC0000968014311607047F549096821F0100163
:101FD000F34A116011460968014311607047F148E6
:101FE000EF494860F04848607047EE48EC49486067
:101FF000ED4848607047EA48006940F08000E849D1
:1020000008617047E648006940F08000E4490861D3
:1020100070470420E249C96801F0010109B10120BB
:102020000EE0DF49C96801F0040109B1022007E0B0
:10203000DB49C96801F0100109B1032000E0042068
:10204000704700B502460423FFF7E3FF034603E0B1
:10205000FFF7DFFF0346521E012B01D1002AF7D103
:1020600002B90523184600BD30B5044604254FF4D7
:102070003020FFF7E6FF0546042D17D1C848006958
:1020800040F00200C649086108464461006940F01A
:10209000400008614FF43020FFF7D3FF0546C048E9
:1020A000006941F6FD710840BD490861284630BD10
:1020B00010B504244FF43020FFF7C3FF0446042C6E
:1020C00016D1B748006940F00400B54908610846D8
:1020D000006940F0400008614FF43020FFF7B1FF85
:1020E0000446AF48006941F6FB710840AC490861FD
:1020F000204610BD00B502460423FFF78AFF0346C1
:1021000003E0FFF786FF0346521E012B01D1002A90
:10211000F7D102B90523184600BD10B504244FF4C9
:102120003020FFF7E7FF0446042C16D19C480069D5
:1021300040F004009A4908610846006940F04000F8
:1021400008614FF43020FFF7D5FF0446944800693A
:1021500041F6FB71084092490861204610BD0020FD
:102160008F49C96901F0020109B1012000E0002096
:10217000704730B5A5250424FFF7F1FF00B1002515
:102180004FF43020FFF75DFF0446042C3AD1854818
:1021900083498860844888600846006940F02000D0
:1021A00008610846006940F0400008614FF43020A3
:1021B000FFF747FF0446042C1BD17948006941F61C
:1021C000DF710840764908610846006940F0100058
:1021D000086176480580E002FFF733FF0446052CCE
:1021E00010D06F48006941F6EF7108406C490861F2
:1021F00008E0052C06D06A48006941F6EF710840F6
:1022000067490861204630BD78B506460C4604256E
:1022100000200090E802FFF714FF0546042D24D1AA
:102220005F48006940F001005D4908613480E802C0
:10223000FFF707FF0546042D10D1B01C0090200CBD
:1022400000990880E802FFF7FCFE05465448006943
:1022500041F6FE7108405249086106E050480069A5
:1022600041F6FE7108404E490861284678BD70B5B8
:1022700004460D460426F002FFF7E3FE0646042E50
:1022800011D14748006940F00100454908612580A7
:10229000F002FFF7D6FE06464148006941F6FE719E
:1022A00008403F490861304670BD70B505460E468E
:1022B0000424E002FFF7C5FE0446042C17D1394878
:1022C00037498860384888600846006940F0100047
:1022D00008612E80E002FFF7B4FE0446052C06D00C
:1022E0002F48006941F6EF7108402D4908612046EA
:1022F00070BD2DE9F04304464FF6FF763746B046F1
:10230000B1460425E443E6B2C4F30727C4F3074803
:102310004FEA1469E802FFF794FE0546042D49D1FF
:1023200020481F498860204888600846006940F0BE
:1023300010000861FF2E06D01C4808300680E80215
:10234000FFF77FFE0546042D08D1FF2F06D0174862
:102350000A300780E802FFF774FE0546042D0AD113
:10236000B8F1FF0F07D011480C30A0F80080E80248
:10237000FFF767FE0546042D0AD1B9F1FF0F07D01C
:102380000A480E30A0F80090E802FFF75AFE054612
:10239000052D0FD00248006941F6EF71084007E0B3
:1023A0000020024023016745AB89EFCD00F8FF1FF5
:1023B000664908612846BDE8F08330B50546042427
:1023C0004FF43020FFF73DFE0446042C41D1604815
:1023D0005E4988605F4888600846006940F02000D8
:1023E00008610846006940F0400008614FF4302061
:1023F000FFF727FE0446042C22D15448006941F619
:10240000DF710840514908610846006940F010003A
:1024100008611DB100205049088002E0A5204E4906
:1024200008804FF43020FFF70CFE0446052C10D036
:102430004648006941F6EF7108404449086108E0E8
:10244000052C06D04148006941F6DF7108403F493C
:102450000861204630BDF0B505460E4617460424F7
:102460003B483A4988603B488860E002FFF7E9FD55
:102470000446042C19D13548006940F01000334956
:10248000086147F0F800304328433349891C08802D
:10249000E002FFF7D6FD0446052C06D02B48006964
:1024A00041F6EF710840294908612046F0BD2748F0
:1024B000C069800870472548006A7047002023499A
:1024C000096801F0200109B1012000E000207047F7
:1024D00029B11E4A126902431C4B1A6104E01B4ACF
:1024E00012698243194B1A61704701460020012985
:1024F00008D1164AD26902F001020AB1012008E0AF
:10250000002006E0114AD2680A400AB1012000E02A
:10251000002070470D49C860704704200B49C96806
:1025200001F0010109B101200EE00849C96801F07C
:10253000040109B1022007E00449C96801F0100153
:1025400009B1032000E00420704700000020024091
:1025500023016745AB89EFCD00F8FF1F29480068CC
:10256000704730B5284800684FF47A72B0FBF2F13A
:10257000B1F1807F00D31DE021F07F40401E4FF07D
:10258000E022506150170F22002807DA13071D0EB2
:102590001E4B00F00F04241F1D5503E013071C0EF3
:1025A0001B4B1C5400BF00204FF0E022906107201D
:1025B000106100BF30BD134A116800BF114A126894
:1025C000521A8242FAD3704730B5034600250024E0
:1025D0004FF4FA7093FBF0F0C5B24FF4FA7093FB2E
:1025E000F0F100FB113084B205E04FF4FA70FFF710
:1025F000E2FF681EC5B2002DF7D114B12046FFF7E7
:10260000DAFF30BD2C0000200000002018ED00E0B3
:1026100000E400E010B586B0044601210420FEF776
:1026200049FB01218803FEF745FB18208DF81700B0
:102630004FF40070ADF8140003208DF8160005A9C2
:102640008348FEF77BF804208DF817000002ADF8F0
:10265000140003208DF8160005A97D48FEF76EF8DA
:1026600001940020ADF810000C20ADF80E00002001
:10267000ADF80C00ADF80A00ADF8080001A97548E6
:10268000FEF7BFFB01217348FEF747FC012240F231
:1026900025517048FEF74DFC25208DF800000120E3
:1026A0008DF8030000208DF8010002208DF8020053
:1026B0006846FDF77AFF06B010BD10B586B0044637
:1026C00001210420FEF7F6FA01214804FEF7FFFA83
:1026D00018208DF817000420ADF8140003208DF8A1
:1026E000160005A95A48FEF729F804208DF81700AE
:1026F0000820ADF8140003208DF8160005A95448F1
:10270000FEF71CF801940020ADF810000C20ADF885
:102710000E000020ADF80C00ADF80A00ADF808007E
:1027200001A94D48FEF76DFB01214B48FEF7F5FB73
:1027300006B010BD10B586B0044601210820FEF792
:10274000B9FA01218804FEF7C2FA18208DF81700A3
:102750004FF48060ADF8140003208DF8160005A931
:102760003E48FDF7EBFF48208DF817004FF400605E
:10277000ADF8140003208DF8160005A93748FDF7C1
:10278000DDFF01940020ADF810000C20ADF80E0024
:102790000020ADF80C00ADF80A00ADF8080001A962
:1027A0002F48FEF72EFB012240F225512C48FEF760
:1027B000C0FB27208DF8000001208DF803000020C9
:1027C0008DF801008DF802006846FDF7EEFE01214C
:1027D0002348FEF7A2FB06B010BD2DE9F0410746E5
:1027E0000C46154600260DE014F8011B3846FEF78E
:1027F00001FC00BF40213846FEF76AFC0028F9D0F2
:10280000701C86B2AE42EFDBBDE8F0810FB438B584
:102810000546144C06A800904FF480612046009BAA
:10282000059A04F08DFA002000900BE014F8011BCB
:102830002846FEF7DFFB00BF40212846FEF748FC94
:102840000028F9D020780028F0D138BC5DF814FBBE
:10285000000801400038014000440040000C0140E5
:10286000004800406800002070B5002491E0092C69
:1028700018D2DFE804F00507090B0D0F111315003E
:10288000FD4D10E0FD4D0EE0FD4D0CE0FD4D0AE06C
:10289000FD4D08E0FD4D06E0FD4D04E0FD4D02E07C
:1028A000FD4D00E000BF00BF284604F008F804EB2F
:1028B0004401FA4A02F82100A81C04F000F804EBD5
:1028C0004401F64A02EB81014870281D03F0F7FF2E
:1028D00004EB4401F14A02EB81018870A81D03F06A
:1028E000EEFF04EB4401ED4A02EB8101C87005F1F3
:1028F000080003F0E4FF04EB4401E84A02EB810125
:10290000087105F10A0003F0DAFF04EB4401E34A21
:1029100002EB8101487105F10C0003F0D0FF04EBDC
:102920004401DE4A02EB8101887105F10E0003F0DB
:10293000C6FF04EB4401D94A02EB8101C87105F1DD
:10294000100003F0BCFF04EB4401D44A02EB810108
:10295000087205F1120003F0B2FF04EB4401CF4A04
:1029600002EB8101487205F1140003F0A8FF04EBAB
:102970004401CA4A02EB8101887205F1160003F096
:102980009EFF04EB4401C54A02EB8101C872601C42
:10299000C4B2082C7FF76BAF70BD10B5FFF764FFB2
:1029A0000024FF20BE49087000BF70E0BD480078D9
:1029B00004EB4401B94A12F82110884265D1B948A4
:1029C000407804EB440102EB8101497888425CD1F4
:1029D000B448807804EB440102EB81018978884295
:1029E00053D1B048C07804EB440102EB8101C978AF
:1029F00088424AD1AB48007904EB440102EB8101E3
:102A00000979884241D1A748407904EB440102EB9F
:102A100081014979884238D1A248807904EB440188
:102A200002EB8101897988422FD19E48C07904EB5D
:102A3000440102EB8101C979884226D19948007A84
:102A400004EB440102EB8101097A88421DD19548CB
:102A5000407A04EB440102EB8101497A884214D1A7
:102A60009048807A04EB440102EB8101897A884224
:102A70000BD18C48C07A04EB440102EB8101C97A86
:102A8000884202D18648047010BD601CC4B2082C74
:102A90008CDD002458E004EB4400804911F820004C
:102AA000FF284FD104EB440001EB80004078FF2861
:102AB00048D104EB440001EB80008078FF2841D12D
:102AC00004EB440001EB8000C078FF283AD104EB0E
:102AD000440001EB80000079FF2833D104EB44006F
:102AE00001EB80004079FF282CD104EB440001EB7E
:102AF00080008079FF2825D104EB440001EB8000A1
:102B0000C079FF281ED104EB440001EB8000007A5D
:102B1000FF2817D104EB440001EB8000407AFF2826
:102B200010D104EB440001EB8000807AFF2809D12A
:102B300004EB440001EB8000C07AFF2802D1584822
:102B40000470A1E7601CC4B2082CA4DD092054491C
:102B5000087000BF98E710B54FF44070FDF720FDF6
:102B6000FFF7FFFC4FF4E130FFF754FD4FF4E13085
:102B7000FFF7A3FD4FF4E130FFF7DCFD03F06EFD3E
:102B800003F095FCFFF770FE10BD92B00024FF2209
:102B90007821424804F025FCFFF7DDFF01F054FCEA
:102BA00003F05DFB40A20121084603F0A4FB42A212
:102BB0000121022003F09FFB00200F901090119044
:102BC00040A00F904AA0109003E04FF4FA70FFF776
:102BD000F2FC0FA801F0C5FB0028F6D146A20121A6
:102BE000032003F088FB48A20121042003F083FBAB
:102BF0004FF4FA70FFF7DFFC03F031FB46A201212E
:102C0000084603F078FB2FA00F9039A01090012008
:102C10008DF8440006E00FA801F0A3FB4FF4FA7012
:102C2000FFF7C9FC00F056FA0028F4D13FA20121B9
:102C3000032003F060FB00F034FD03F010FBD3E150
:102C40003E480078002816D03D4AD2E9001092682C
:102C5000CDE90D020C9103230CAA0121084603F0D3
:102C6000B7FC38A20721012003F045FB03F081FFE8
:102C700003F0F5FE68E027E100D8010800DC010858
:102C800000E0010800E4010800E8010800EC010888
:102C900000F0010800F4010800F801089A0400207F
:102CA00033000020580D0020436F6E6E6563742062
:102CB0004D515454730000005365727665722E2E88
:102CC0002E00000041542B43495053544152543D6F
:102CD00022544350222C223139322E3136382E31B3
:102CE00039392E313030222C313838330D0A00007A
:102CF000434F4E4E45435400436F6E6E65637420E0
:102D00004D51545420000000536572766572205373
:102D10007563636573730000446576696365206C51
:102D20006F67696E202E2E2E000000006C6F6769A1
:102D30006E2066696E697368000000003C00002028
:102D400050A500082E2E2E00FFF78EFD03F021FF68
:102D500001286FD103F032FF0128FAD1AC48C07AC4
:102D6000AB49897AAA4A527AA94B1B7ACDE9063235
:102D7000CDE90810A648C1798079A54A5279A44BBB
:102D80001B79CDE90232CDE90401A148C078A04900
:102D90008978CDE900109E48437802789DA1AA4821
:102DA00003F0E8FFA94903C9CDE90A0102230AAAF1
:102DB0000121184603F00CFCA5A20521022003F016
:102DC0009AFAA14A0121032003F095FA0025FFF7A2
:102DD000E4FDA0480078082817DD9C4B08330FCB92
:102DE000CDE90823CDE90601042306AA01211846EE
:102DF00003F0EEFB032098490870042097490870FF
:102E000001210007FEF7EEFD5CE0924800780928FA
:102E100019D2DFE800F00507090B0D101214160097
:102E20008F4D11E08F4D0FE08F4D0DE08F4D0BE07A
:102E30008F4D09E047E08F4D06E08F4D04E08F4D48
:102E400002E08F4D00E000BF00BF01208D490870F7
:102E5000084600897F490A78012191400843894941
:102E600008810846807A401C88726949284603F028
:102E7000C8FCFFF7F9FC0320774908700420774964
:102E8000087001210007FEF7ADFD7F4890F90000B2
:102E900070490978C1EB01117C4A02EBC101486716
:102EA0006C4800786B490978C1EB011102F83100D8
:102EB00068490978C1EB011102EBC101481C624964
:102EC00004F07EF900BF10E0604B1833D3E9010233
:102ED0001968DB68CDE90D23CDE90B1004230BAA9B
:102EE0000121084603F074FB00BF6948007860B117
:102EF0005A4801785848007803F081FB0020574970
:102F00000870554908706249087062480068401CA2
:102F1000A0B1604860A102686448FFF777FC5D4893
:102F200000684F4901EB8025284603F0CEFCFFF7EF
:102F30009BFC4FF0FF305749086000BFFFF70EFBC6
:102F400050494968401A4EF6602188420DD34D48D9
:102F5000007850B900F0CAFBFFF700FB4949486010
:102F600053480068401C524908604648007858B1F0
:102F700000F048FA0020434908704D480068401CA2
:102F80004B49086001F0CEF9494800680A2823DB64
:102F900048A14648FFF73AFC01F056FAAFF2DC20B0
:102FA0000F90AFF2B420109000208DF8440006E09E
:102FB0000FA801F0D6F94FF4FA70FFF7FCFA00F011
:102FC00089F80028F4D13FA13848FFF71FFC002002
:102FD0003749086003F043F9002001F00EFA044677
:102FE00014B1204600F095FB2AE610B501218807B0
:102FF000FEF7C1FF01280AD1254908700121800789
:10300000FEF7CAFF00214FF08040FEF7EBFC10BD39
:10301000580D00202530325825303258253032588E
:103020002530325825303258253032582530325824
:103030002530325825303258253032582530325814
:103040002530325820000000680400205CA50008EC
:103050003A00000033000020300000203100002042
:1030600000D8010800DC010800E0010800E40108C4
:1030700000E8010800EC010800F0010800F4010874
:1030800000F801084C09002065000020140500200C
:103090003200002034000020526577726974652088
:1030A000464C41534825640D0A000000004400408E
:1030B00038000020446973636F6E6E6563740D0A97
:1030C00000000000436F6E6E656374206167616984
:1030D0006E0D0A0030B5B3B000202F9030903190C3
:1030E000329001252FA8002102910391CDE904100F
:1030F000084601213C23E0A2CDE9001007A9DFA08A
:1031000000F0DEFC002842D1309A91B22F9801F0F5
:1031100053F9FA2001F071F90446002C33D020460F
:1031200000F0A0FC02282ED1204600F02EFE06283A
:1031300023D2DFE800F003090E13181DD0A1D548F3
:10314000FFF764FB00251DE0D3A1D248FFF75EFB2B
:1031500018E0D8A1CF48FFF759FB13E0DEA1CD4816
:10316000FFF754FB0EE0E4A1CA48FFF74FFB09E06C
:10317000EAA1C848FFF74AFB04E0F3A1C548FFF7FE
:1031800045FB00BF00BF2FA800F024FC03E0F5A121
:10319000C048FFF73BFB284633B030BD30B58DB09B
:1031A0000546302101A804F046F9F748827AF7A1D4
:1031B00001A803F0DFFD01A9284604F08FF8F248CA
:1031C000807A00287EDDF048008900287AD000242B
:1031D00007E1ED4800890121A140084000287DD089
:1031E000E948807A012879DD302101A804F023F92B
:1031F000621CEEA101A803F0BDFD01A9284604F060
:103200006DF8302101A804F016F9621CEDA101A8A7
:1032100003F0B0FD01A9284604F060F8C4EB0410E7
:10322000EB4901EBC000406F88B1302101A804F0E8
:1032300002F9C4EB0410E64901EBC000E5A1426FBE
:1032400001A803F097FD01A9284604F047F83021B2
:1032500001A804F0F0F8C4EB0410DD4901EBC00054
:1032600000F14102DEA101A803F084FD01A9284676
:1032700004F034F8302101A804F0DDF8C4EB0410A8
:10328000D34901EBC00000F15102D9A101A803F01C
:1032900071FD01A9284604F021F8302101A804F0AD
:1032A000CAF8C4EB0410CA4901EBC000421CD4A107
:1032B00001A803F05FFD01A9284604F00FF8B24809
:1032C000008901E090E009E00121A1408843AE4976
:1032D00008810846807A401E887280E0AA480189E9
:1032E0000120A0400140002979D0A748807A012818
:1032F00075D1302101A804F09EF8621CABA101A891
:1033000003F038FD01A9284603F0E8FF302101A8A9
:1033100004F091F8621CABA101A803F02BFD01A9F8
:10332000284603F0DBFFC4EB0410A94901EBC00001
:10333000406F88B1302101A804F07DF8C4EB04107F
:10334000A34901EBC000A3A1426F01A803F012FD45
:1033500001A9284603F0C2FF302101A804F06BF850
:10336000C4EB04109A4901EBC00000F141029CA19A
:1033700001A803F0FFFC01A9284603F0AFFF3021AC
:1033800001A804F058F8C4EB0410914901EBC00007
:1033900000F1510296A101A803F0ECFC01A9284616
:1033A00003F09CFF302101A804F045F8C4EB0410A1
:1033B000874901EBC000421C95A101A803F0DAFC8B
:1033C00001A9284603F08AFF6F4801890120A04027
:1033D00081436D480181807A401E6B498872601C70
:1033E000C4B2092CFFF6F5AE88A1284603F076FF9B
:1033F0002A468BA12748FFF709FA284603F004FF65
:103400000DB030BD30B5ADF5057D002081908290C6
:1034100083908490002400254FF4007101A804F0EB
:103420000AF801A8FFF7BAFE0446002C20D081A8B4
:10343000002322B210A1009010A000F091FD98B9D5
:1034400007E001A8415D829A501C829081988154C6
:103450006D1CA542F5D3829A91B2819800F0ACFF21
:1034600081A800F0B7FA03E070A10A48FFF7CEF98F
:103470000DF5057D30BD000074000000390000002E
:10348000546970733A09C1ACBDD3B3C9B9A60D0A6A
:1034900000000000004400405741524E3A09C1ACC0
:1034A000BDD3CAA7B0DCA3BAD0ADD2E9B4EDCEF398
:1034B0000D0A00005741524E3A09C1ACBDD3CAA70C
:1034C000B0DCA3BAB7C7B7A8B5C4636C69656E743E
:1034D00069640D0A000000005741524E3A09C1AC20
:1034E000BDD3CAA7B0DCA3BAB7FECEF1C6F7CAA750
:1034F000B0DC0D0A000000005741524E3A09C1AC41
:10350000BDD3CAA7B0DCA3BAD3C3BBA7C3FBBBF26E
:10351000C3DCC2EBB4EDCEF30D0A00005741524EAE
:103520003A09C1ACBDD3CAA7B0DCA3BAB7C7B7A824
:10353000C1B4BDD328B1C8C8E7746F6B656EB7C797
:10354000B7A8290D0A0000004552523A09C1ACBD86
:10355000D3CAA7B0DCA3BACEB4D6AAB4EDCEF30DCD
:103560000A0000005741524E3A094D5154545F50E1
:1035700061636B6574436F6E6E6563742046616949
:103580006C65640D0A0000004C0900207B22736505
:103590006E645F6E756D626572223A25642C2270CE
:1035A0006172616D73223A7B00000000226F626AD3
:1035B0006563742564223A7B2276616C7565223AD4
:1035C0007B000000226964223A25642C0000000080
:1035D000140500202252535349223A25642C00003E
:1035E000226E616D65223A222573222C00000000B4
:1035F000226E6F7465223A222573222C000000008F
:103600002263617264223A222573222C7D7D0000A0
:103610002263617264223A222573227D7D000000BC
:103620006275663A25730D0A000000005741524E3C
:103630003A094544505F4E6577427566666572206B
:103640004661696C65640D0A0000000070B588B0C1
:1036500005460C46002004900590069007902346EE
:103660002A4680A18748FFF7D1F8204603F0CCFD19
:10367000064604A80121002200923346CDE901212B
:103680000390224629460A2000F08EFB38B9059A9D
:1036900091B2049800F090FE04A800F09BF908B0E5
:1036A00070BD00B595B00020119012901390149049
:1036B00003A8029074A2382103F072FB03AA76A13A
:1036C0007048FFF7A3F811A8012302AA0021009077
:1036D000142000F065FC38B9129A91B2119800F0EC
:1036E0006BFE11A800F076F915B000BD1FB50020E3
:1036F0000090019002900390684600F0FBFD38B9FD
:10370000019A91B2009800F057FE684600F062F905
:103710001FBD2DE9F04F89B080460020089007902A
:1037200006900590049081460027404600F09AF9E3
:103730008146B9F1030F09D0B9F1040F5FD0B9F197
:10374000090F69D0B9F10D0F7FD174E0584804A971
:1037500005AA08ABCDE90021029006AA07A94046B8
:1037600000F0C0FC0746002F48D1089801F0E6FDA4
:10377000824650A1504602F0E7F983464FA15846D1
:1037800002F0E2F9064686B14EA1304602F0DCF9BD
:103790000546E868032808D16869401E4A49086060
:1037A0004AA138486A69FFF731F8FEF7D7FE4C495D
:1037B000486000F0B7FD4BA1584602F0C5F9044639
:1037C000C4B1E068032815D1484909786069884286
:1037D00007D0012046490870464908700420464930
:1037E0000870207D414908700846027843A12548A9
:1037F000FFF70CF8504600F09FFF29E000BF40465D
:1038000000F069FD012806D100203F4908603FA172
:103810001C48FEF7FBFF1BE0404600F049FC28B9BE
:1038200042A11848FEF7F2FF04E00EE046A1154859
:10383000FEF7ECFF0CE034480068401E3249086097
:1038400048A11048FEF7E2FF02E04FF0FF3700BF4B
:1038500000BF00F067FD781C10B909B0BDE8F08F1B
:1038600000BFFAE75075626C69736820546F706925
:10387000633A2025732C204D73673A2025730D0A77
:10388000000000000044004061737365742F636F93
:103890006D6D616E640000005375627363726962DE
:1038A0006520546F7069633A2025730D0A0000008B
:1038B00040000020706172616D73000064656C658A
:1038C00074650000696400003400002064656C6564
:1038D000746520617373657425640D0A000000002F
:1038E0004C09002073656172636800003C00002091
:1038F000320000203000002031000020736561722A
:1039000063683A25640D0A0038000020546970731A
:103910003A094D515454205075626C6973682053B4
:10392000656E64204F4B0D0A0000000054697073EF
:103930003A094D515454205375627363726962653C
:10394000204F4B0D0A000000546970733A094D5125
:1039500054542053756273637269626520457272B4
:103960000D0A0000546970733A094D515454207087
:10397000696E67204F4B0D0A0000000070B50446C9
:103980000E460025206898B901202073304603F0C8
:1039900073F920602068E0B100206060A66003E059
:1039A0000020216848556D1CA068A842F8D810E096
:1039B0000220207303E00020216848556D1CA06898
:1039C000A842F8D800206060A068B04201D2002070
:1039D000206070BD10B50446207B012802D120680C
:1039E00003F079F9002020606060A060207310BDB2
:1039F0000246002301230DE002F07F000870D20987
:103A00002AB1087840F080000870491C01E018468F
:103A100070475B1C042BEFDD4FF0FF30F8E7F0B58B
:103A200004460D462646012300201060002114E0C4
:103A3000775C07F07F07106807FB03001060705C7D
:103A400000F0800008B9481CF0BDDB01B3F5001F91
:103A500002D36FF00100F7E7491CA942E8DB4FF001
:103A6000FF30F1E7F8B50446FF2720780511012D56
:103A700001DB0E2D01DD3846F8BD032D1DD10020E0
:103A800000906A460421601CFFF7C9FF2044461CD1
:103A90000098022803D3207800F0010008B1FF202D
:103AA000EAE77078317840EA0120801C009988426A
:103AB00001D9FF20E0E7032700E02F463846DBE787
:103AC0002DE9FF4F83B082468B469146159C002519
:103AD000002002900F270190484603F095FB0FFA53
:103AE00080F8B9F1000F03D1012007B0BDE8F08FD5
:103AF00008F10200384487B2109808B145F0020579
:103B0000129878B145F00405129803F07DFBC0B21D
:103B10000290139803F078FB01460298001D0844B8
:103B2000384487B2119820B1012804D0022808D166
:103B300004E000BF07E045F00C0504E045F0140583
:103B400001E00220D1E700BF149808B145F0240538
:103B5000BAF1000F02D0BBF1000F01D10320C4E77E
:103B600045F0C005504603F04FFB0646584603F0AB
:103B70004BFB3044001D384487B239462046FFF7DE
:103B8000FDFE206808B90420AFE73946206803F03D
:103B900030FC10216268501C606020688154D4E9B8
:103BA0000023D118781FFFF723FF00B2019001987E
:103BB000002804DA2046FFF70DFF052095E761682D
:103BC00001980844606000216268501C60602068B1
:103BD000815404216268501C6060206881544D212A
:103BE0006268501C60602068815451216268501CDA
:103BF00060602068815454216268501C60602068B5
:103C000081546268501C606020688154042162689D
:103C1000501C6060206881546168481C60602068A6
:103C200045540698010A6268501C606020688154FF
:103C30000698C1B26268501C606020688154C8F365
:103C400007216268501C6060206881546268501CC3
:103C50006060206800F80280D4E9001288184246AB
:103C6000494603F05DFA60684044606005F0040076
:103C7000B8B30026139808B9FEA01390129803F069
:103C8000C3FA86B2310A6268501C606020688154B1
:103C90006268501C606020688654D4E9001288185D
:103CA0003246129903F03CFA606830446060139821
:103CB00003F0AAFA86B2310A6268501C606020687C
:103CC00081546268501C606020688654D4E90012F8
:103CD00088183246139903F023FA60683044606014
:103CE00000BF05F08000C8B1504603F08DFA86B2DF
:103CF000310A6268501C6060206881546268501C00
:103D0000606020688654D4E9001288183246514613
:103D100003F006FA60683044606000BF05F04000C0
:103D2000C8B1584603F070FA86B2310A6268501C76
:103D30006060206881546268501C6060206886540E
:103D4000D4E9001288183246594603F0E9F9606850
:103D50003044606000BF0020C7E610B50446022171
:103D60002046FFF70BFE206808B9012010BDE021B6
:103D70006268501C60602068815400216268501C99
:103D80006060206881540020F0E7014648780228EE
:103D900001D001207047887810B18878012801D1BE
:103DA000C878F7E7FF20F5E72DE9FF4F83B083469A
:103DB00017469946139C002500260020029001908A
:103DC0008046BBF1000F03D1012007B0BDE8F08FA2
:103DD00000260AE00498805D232803D00498805DC3
:103DE0002B2801D10220F0E7761C0498805D002882
:103DF000F0D148F03008119808B148F0010806EBFE
:103E00000900851C109820B1012804D002280AD18D
:103E100005E000BF09E048F00208AD1C05E048F0ED
:103E20000408AD1C01E00320CFE700BF8FB3387852
:103E3000022821D14FF0000A00BF50460AF1010AC2
:103E4000385C7D28F9D1AAF1030A0AF10700029033
:103E50000298A9EB000AE81CA0EB0A012046FFF734
:103E60008DFD206808B90420AFE7EA1CA2EB0A0127
:103E7000206803F0BEFA19E0691D2046FFF77EFDB9
:103E8000206808B90420A0E7691D206803F0B1FA92
:103E90000CE0FFE7691D2046FFF770FD206808B9B8
:103EA000042092E7691D206803F0A3FA6168481CAA
:103EB0006060206800F80180D4E90002811828467B
:103EC000FFF796FD01900198002804DA2046FFF7DD
:103ED00081FD052079E76168019808446060C6F3B8
:103EE00007216268501C6060206881546268501C21
:103EF000606020688654D4E900128818324604991C
:103F000003F00EF9606830446060109860B14FEAC9
:103F10001B216268501C6060206881546268501CDC
:103F20006060206800F802B0C7B1387802280BD171
:103F3000D4E9001288183946029A03F0DBF9616867
:103F400002980844606009E0D4E9001288184A46E3
:103F5000394603F0CFF9606848446060002034E7D8
:103F60002DE9F04190B006460F4614469846169D3E
:103F700041A2302104A802F013FF01200021CDE965
:103F8000000123460A4604A9CDE902050A20FFF7ED
:103F90000BFF18B1012010B0BDE8F0810020FAE756
:103FA0002DE9FF5F8046174699460E9C0026B246D3
:103FB000B3460025B8F1000F03D1012004B0BDE8DD
:103FC000F09F0BE057F8250008B90220F6E757F8F4
:103FD000250003F019F90644681CC5B24D45F1DB14
:103FE00009EB4900801C00EB060A0AF10501204696
:103FF000FFF7C4FC206808B90320DFE7822162686C
:10400000501C606020688154D4E900028118504639
:10401000FFF7EEFC0FFA80FBBBF1000F04DA20463D
:10402000FFF7D8FC0420C9E76068584460604FEA95
:1040300018216268501C6060206881546268501CBE
:104040006060206800F8028000252DE057F8250008
:1040500003F0DAF80646C6F307216268501C606078
:10406000206881546268501C606020688654D4E9DE
:10407000002307E00000000061737365742F706F08
:1040800073740000D01857F82510324603F048F832
:104090006068304460600198C1B26268501C606022
:1040A00020688154681CC5B24D45CFDB002085E7F0
:1040B0000146FF208A78A2B9CA78142A11D10A7958
:1040C00032B1012A05D0022A04D0802A06D103E0A9
:1040D00000BF00BF002003E0012001E0022000BF7C
:1040E00000BF70472DE9FC5F81460D4614461E4611
:1040F000DDE90C7B99F8000000F00F0A0020019028
:104100000AF008000090CAF341008BF8000001AAF1
:10411000042109F10100FFF782FC484400F1010885
:104120000198022802D30AF0010010B1FF20BDE877
:10413000FC9F98F8010098F8001040EA01202080C8
:104140002088801C0199884201D9FF20EFE79BF865
:10415000000020B101283BD0022876D139E0009838
:1041600008B1FF20E3E72188481C02F085FD2860A4
:10417000286808B9FF20DAE72288511C286803F074
:1041800038F9228808F10201286803F0B3F8019891
:10419000801E2188401A38803988481C02F06CFD46
:1041A0003060306820B9286802F095FDFF20BEE736
:1041B0003A88511C306803F01CF93A88B4F800C002
:1041C00008F102030CEB0301306803F093F84FE0B1
:1041D00000BF2088801C0199884201D9FF20A6E7F2
:1041E0002088C01C18F800102088801C18F80000D7
:1041F00041EA00210E9801800E9808B9FF2096E749
:104200002188481C02F038FD2860286808B9FF2082
:104210008DE72288511C286803F0EBF8228808F10A
:104220000201286803F066F80198001F2188401AEF
:1042300038803988481C02F01FFD3060306828B98A
:10424000286802F048FDFF2071E70FE03A88511C12
:10425000306803F0CEF83A88B4F800C008F10403DF
:104260000CEB0301306803F045F801E0FF205EE746
:1042700000BF2B21284602F049FF20B92321284600
:1042800002F044FF08B1FF2051E700204FE770B56E
:1042900005460C4604212046FFF770FB206808B94C
:1042A000012070BD40216268501C6060206881540C
:1042B00002216268501C6060206881542912626883
:1042C000501C6060206881546268501C60602068E7
:1042D00085540020E5E701464878022801D00020F7
:1042E0007047887820B9C8780A2801D10120F7E7FB
:1042F0000020F5E710B5044602212046FFF73EFBFB
:10430000206808B9012010BDC0216268501C60609F
:104310002068815400216268501C606020688154CC
:104320000020F0E710B54FF400718C4803F061F8FD
:1043300000208B49088010BD8948008808B90120F9
:1043400070478748008887490988884203D1002040
:1043500083490880F4E78248008882490880012068
:10436000EEE770B50446C825206802F04DFF86B21E
:1043700032467D482168FEF730FA16E0FFF7DCFF91
:1043800080B9207A012804D1744A78A17948FEF7CF
:104390003DFA7248616802F0D5FE18B1FFF7C2FF1E
:1043A000002070BD0A20FEF706F9281EA5F10101C4
:1043B000CDB2E3D10120F4E730B58BB004460D4611
:1043C000FFF7B0FF2A466CA103A802F0D3FC00203F
:1043D00000900190029003A800906BA00190002033
:1043E0008DF808006846FFF7BCFF20B92A46214631
:1043F0005D48FEF7F2F90BB030BD70B505460024FC
:1044000000BFFFF799FFA8B960A1544802F09AFED7
:10441000044624B95FA15748FEF7F8F90AE03A21AB
:10442000204602F073FE044614B1641C204670BDA1
:104430000020FCE73220FEF7BEF8281EA5F101019E
:104440008DB2DED100BFF2E70EB5002000900190E2
:104450000290FFF767FF54A14648FEF7D7F901F035
:10446000FEFE53A20121084601F045FF52A0009034
:1044700053A0019003E04FF4FA70FEF79CF86846F1
:10448000FFF76FFF0028F6D14EA20121022001F0B4
:1044900032FF4FA000904AA0019003E04FF4FA7061
:1044A000FEF789F86846FFF75CFF0028F6D14CA2BA
:1044B0000121032001F01FFF4DA0009040A00190BA
:1044C00003E04FF4FA70FEF776F86846FFF749FF0D
:1044D0000028F6D14AA20121042001F00CFF4BA0D4
:1044E000009058A0019003E041F28830FEF763F895
:1044F0006846FFF736FF0028F6D154A11D48FEF7A5
:1045000085F901F0ACFE57A20121084601F0F3FE47
:104510004FF4FA70FEF74FF80EBD10B540F225517A
:104520001148FCF7EBFDB8B10D480088B0F5007FED
:1045300002D300200A4908800B48001D0088C1B240
:10454000074802880088401C054B188003488154A6
:1045500020210548FCF7C9FD10BD000058090020C6
:1045600042000020440000200048004025730D0A4E
:10457000000000000044004041542B434950534583
:104580004E443D25640D0A003E0000004950442C75
:10459000000000002249504422206E6F7420666F94
:1045A000756E640D0A000000312E2041540D0A0082
:1045B000312E41542E2E2E0041540D0A00000000D1
:1045C0004F4B0000322E43574D4F44452E2E2E00A8
:1045D00041542B43574D4F44453D310D0A000000D7
:1045E000332E41542B4357444843502E2E2E000067
:1045F00041542B4357444843503D312C310D0A0060
:10460000342E43574A41502E2E2E000041542B4346
:10461000574A41503D22486957694669222C223544
:10462000353535373230373230222C2264343A6512
:10463000653A30373A30333A65373A3534220D0A25
:1046400000000000474F542049500000352E2045FF
:1046500053503832363620496E6974204F4B0D0A5C
:10466000000000004553503832363620496E6974D8
:10467000204F4B00FE480068704770B504460D4659
:104680002CB9AC4201D0012070BD0020FCE70DB96F
:104690000120F9E705E0207808B90020F4E7641C60
:1046A0006D1C207802F03EFB0646287802F03AFBAB
:1046B0008642F0D0207802F035FB0646287802F0DA
:1046C00031FB301AE0E770B50446204602F09CFD4D
:1046D000451C2846E74909688847061E00D170BD79
:1046E0002A462146304602F005FE3046F7E730B94B
:1046F000E149E04A1160E149E14A1160704701680F
:1047000009B1016800E0DC49DA4A1160416809B189
:10471000416800E0D949DA4A116000BFEEE710B500
:104720002820D4490968884704461CB1282120461E
:1047300002F081FE204610BD70B5044622E02568D7
:10474000A08900F4807020B9A06810B1A068FFF7BC
:10475000F3FFA08900F4807028B9206918B1C84916
:10476000206909688847A08900F4007028B9206A88
:1047700018B1C349206A096888472046C0490968BA
:1047800088472C46002CDAD170BD2DE9F04F8BB054
:1047900083468A460020044605460026B94F00217C
:1047A000884689460990012008909AF800002D2833
:1047B00002D1B54F0AF1010A9AF80000302801D160
:1047C0000AF1010A9AF80000312822DB9AF8000069
:1047D00039281EDC00BF1AF8011BA1F1300005F0DA
:1047E00066FA0022A94BCDE906012046294605F0CC
:1047F000B1FACDE90401DDE9062304F0D9FF04464E
:104800000D469AF80000302803DB9AF8000039289A
:10481000E1DD9AF800002E2830D19AF80100302806
:104820002CDB9AF80100392828DC0AF1010A00BFC4
:104830001AF8011BA1F1300005F039FA0022934B60
:10484000CDE906012046294605F084FACDE90401A8
:10485000DDE9062304F0ACFF04460D460022894B37
:104860004046494605F09CFC804689469AF800007F
:10487000302803DB9AF800003928D9DD9AF80000C7
:10488000652803D09AF80000452823D10AF1010ACF
:104890009AF800002B2802D10AF1010A08E09AF8E0
:1048A00000002D2804D14FF0FF3008900AF1010AD2
:1048B00008E01AF8010B3038099901EB810100EB8F
:1048C000410009909AF80000302803DB9AF80000B4
:1048D0003928EEDDDDE9082101FB02F005F0E7F9FA
:1048E00042464B46CDE9000104F062FF02460B460A
:1048F000CDE902010020654904F01CFA22462B464E
:10490000CDE906013046394605F024FACDE9040127
:10491000DDE9062305F01EFA04460D46CBE90645FF
:104920002046294605F094F9CBF814000320CBF873
:104930000C0050460BB0BDE8F08F0146491E41EA1D
:10494000610141EAA10141EA211141EA212141EA43
:104950002141481C70472DE9F04104460E460CB138
:10496000206810B90020BDE8F081A06806446068A6
:10497000B04203DBA16820680844F4E73046FFF743
:10498000DCFF074638463B490968884705463DB97C
:104990003B49206809688847002060602060E2E7A2
:1049A00025B12846D4E9001202F0A4FC344920685D
:1049B0000968884767602560A0682844D3E770B518
:1049C00004460CB1206808B9002070BDA1682068B9
:1049D0004518284602F018FCA1680844F5E72DE9BF
:1049E000FC4782460E464FF00009DAE906450022F0
:1049F00013462046294605F0EFF813D12EB10221C7
:104A00003046FFF7A8FF814604E0022019490968F3
:104A100088478146B9F1000F03D01DA00088A9F88E
:104A200000009FE0DAF8140005F041F9074622463D
:104A30002B4605F0B5FB21F000410022154BCDE9D6
:104A4000000105F04BF93ED8134A144B2046294685
:104A500005F044F937D80022114B2046294605F0CD
:104A600077FA30D806B315213046FFF774FF19E006
:104A7000480000204C000020796C0008D76C00082A
:104A8000500000200000F03F0000F0BF0000244074
:104A9000300000000000B03C0000C0FFFFFFDF411D
:104AA0000000E0C1814604E01520FA490968884702
:104AB0008146B9F1000F55D0F7A14846DAF8142025
:104AC00002F058F94EE02EB140213046FFF743FF87
:104AD000814604E04020EF49096888478146B9F1E2
:104AE000000F3FD02046294604F0B6F8074622467C
:104AF0002B4605F055FB21F000410022E74BCDE9A4
:104B0000000105F0EBF80FD825F000412746E44AF4
:104B1000E44B384605F0E2F806D222462B46E2A1E5
:104B2000484602F027F91DE025F000412746E04AFB
:104B3000E04B384605F0D2F807D325F000410022BB
:104B4000DD4B384605F004FA06D222462B46DBA19F
:104B5000484602F00FF905E022462B46D8A1484608
:104B600002F008F94846BDE8FC87014600220878B3
:104B7000302806DB0878392803DC0878303802440E
:104B800015E00878412806DB0878462803DC087819
:104B9000373802440BE00878612806DB087866287D
:104BA00003DC08785738024401E000207047120106
:104BB000491C0878302806DB0878392803DC087897
:104BC0003038024415E00878412806DB087846288A
:104BD00003DC0878373802440BE00878612806DBEC
:104BE0000878662803DC08785738024401E0002082
:104BF000DCE71201491C0878302806DB08783928E0
:104C000003DC08783038024415E00878412806DBD8
:104C10000878462803DC0878373802440BE0087827
:104C2000612806DB0878662803DC087857380244D8
:104C300001E00020BAE71201491C0878302806DBA1
:104C40000878392803DC08783038024415E0087801
:104C5000412806DB0878462803DC08783738024408
:104C60000BE00878612806DB0878662803DC087802
:104C70005738024401E0002098E7104696E72DE9F6
:104C8000F05F8346884608F10104002798F8000089
:104C9000222805D08B48C0F800800020BDE8F09F96
:104CA00004E014F8011B5C2900D1641C2078222840
:104CB00004D0207810B1781C071EF2D1781C7549F9
:104CC000096888478146B9F1000F01D10020E5E766
:104CD00008F101044D469EE020785C2804D014F8C9
:104CE000010B05F8010B96E0641C2078722818D09F
:104CF00006DC622809D066280BD06E287ED10CE035
:104D0000742812D07528F9D113E0082005F8010B9A
:104D10007FE00C2005F8010B7BE00A2005F8010B71
:104D200077E00D2005F8010B73E0092005F8010B71
:104D30006FE0601CFFF719FF0646241DB6F55C4FB7
:104D400002D3B6F5604F00D306B962E0B6F5584F0E
:104D50001CD3B6F55C4F19D260785C2802D1A078DC
:104D6000752800D055E0E01CFFF7FFFE8246A41D29
:104D7000BAF55C4F02D3BAF5604F00D349E0C6F3F1
:104D80000901504661F39F2000F580360427802EEC
:104D900001D2012708E0B6F5006F01D2022703E037
:104DA000B6F5803F00D203273D44012F20D0022FCB
:104DB00015D0032F0AD0042F24D106F0BF0040F0F5
:104DC0008001681E05460170B60900BF06F0BF00ED
:104DD00040F08001681E05460170B60900BF06F06C
:104DE000BF0040F08001681E05460170B60900BF93
:104DF0003548C05D3043C1B2681E00E005E005469D
:104E0000017000BF00BF3D4403E0207805F8010BAE
:104E100000BF00BF641C2078222803D0207800281F
:104E20007FF45AAF002028702078222800D1641C1B
:104E3000CBF810900420CBF80C0020462EE72DE98B
:104E4000F05F804689460027BB46454611E028783A
:104E5000002802DD2878202805DB2878222802D0C7
:104E600028785C2801D1012000E0002040EA0B0BEB
:104E70006D1C28780028EAD1BBF1000F3ED1A5EBCC
:104E80000807B9F1000F21D0F91C4846FFF763FD70
:104E9000064620E04C000020256400000000B03CE5
:104EA00044F3C2E4E4E9634C252E306600000000C0
:104EB0008DEDB5A0F7C6B03E65CDCD4125650000AE
:104EC000256600004800002084A50008F81CFD4964
:104ED00009688847064616B90020BDE8F09F3446A9
:104EE000222004F8010B4146204602F069F92220F5
:104EF000E0550021781C21543046EEE7B8F1000F50
:104F000016D1B9F1000F05D003214846FFF723FD64
:104F1000064604E00320EB490968884706460EB9B7
:104F20000020DAE7E8A1304602F04AF93046D4E73B
:104F300045460BE05146E5A002F0E8F808B17F1CB9
:104F400003E0BAF1200F00DA7F1D6D1C95F800A078
:104F5000BAF1000F02D0781C071EEBD1B9F1000F97
:104F600005D0F91C4846FFF7F6FC064604E0F81C9D
:104F7000D4490968884706460EB90020ADE7344693
:104F80004546222004F8010B47E028781F280ADD57
:104F90002878222807D028785C2804D015F8010B3F
:104FA00004F8010B39E05C2004F8010B15F8011B33
:104FB0008A460C2919D006DC082912D0092920D0EC
:104FC0000A2922D115E00D2917D0222905D05C2904
:104FD0001BD15C2004F8010B1EE0222004F8010B19
:104FE0001AE0622004F8010B16E0662004F8010BB9
:104FF00012E06E2004F8010B0EE0722004F8010BA1
:105000000AE0742004F8010B06E05246B1A12046E4
:1050100001F0B0FE641D00BF00BF28780028B4D1A5
:10502000222004F8010B002004F8010B304654E75D
:1050300070B504460D4629462069FFF700FF70BD94
:1050400000E0401C20B1017811B101782029F8DD81
:1050500070472DE9F04706460C4620787B2804D09F
:105060009E4804600020BDE8F0870620F060601CC8
:10507000FFF7E6FF044620787D2801D1601CF2E7A7
:10508000FFF74DFB0546B060B06808B90020EAE7BD
:105090002046FFF7D5FF804641462846FFF7EFFD43
:1050A0000746FFF7CDFF04460CB90020DBE728696F
:1050B00028620020286120783A2803D087480460BD
:1050C0000020D0E7601CFFF7BBFF80464146284622
:1050D00000F099F80746FFF7B3FF04460CB900202B
:1050E000C1E731E0FFF71BFB071E00D1BBE72F60D4
:1050F0007D603D46601CFFF7A3FF81464946284678
:10510000FFF7BDFD8046FFF79BFF04460CB900206A
:10511000A9E7286928620020286120783A2803D06E
:105120006E48046000209EE7601CFFF789FF8146FF
:105130004946284600F067F88046FFF781FF04469D
:105140000CB900208FE700BF20782C28CAD0207827
:105150007D2801D1601C86E760480460002082E75A
:105160002DE9F04705460C4620785B2804D05B48C3
:1051700004600020BDE8F0870520E860601CFFF7B0
:105180005FFF044620785D2801D1601CF2E7FFF73D
:10519000C6FA0646A860A86808B90020EAE72046D3
:1051A000FFF74EFF80464146304600F02CF8074698
:1051B000FFF746FF04460CB90020DBE717E0FFF7D6
:1051C000AEFA071E00D1D5E737607E603E46601C10
:1051D000FFF736FF81464946304600F014F8804616
:1051E000FFF72EFF04460CB90020C3E700BF20786C
:1051F0002C28E4D020785D2801D1601CBAE737481C
:1052000004600020B6E770B505460C460CB90020D6
:1052100070BD042232A1204602F015F818B9022010
:10522000E860201DF4E705222FA1204602F00BF8CC
:1052300018B90020E860601DEAE704222CA120468E
:1052400002F001F820B90120E8606861201DDFE765
:105250002078222804D121462846FFF710FDD7E701
:1052600020782D2805D02078302807DB20783928B1
:1052700004DC21462846FFF788FAC9E720785B2836
:1052800004D121462846FFF76BFFC1E720787B2831
:1052900004D121462846FFF7DCFEB9E70F48046039
:1052A0000020B5E72DE9F04780460D46164600245C
:1052B000FFF735FA0746002008490860E7B9BDE85E
:1052C000F08700004C00002022220000225C080C25
:1052D0000A0D0900752530347800000048000020D0
:1052E0006E756C6C0000000066616C7365000000F8
:1052F00074727565000000004046FFF7A1FE81460C
:1053000049463846FFF77FFF04462CB93846FFF779
:1053100013FA0020BDE8F08766B12046FFF790FE43
:105320000446207830B13846FFF706FAFE4804609C
:105330000020EFE705B12C603846EBE710B50446D6
:10534000002211462046FFF7ADFF10BD2DE9FF4FAB
:1053500089B0884616461F460020089007900690A0
:105360004FF0070A00250998D0F808900020029015
:105370000190009004E00298401C0290D9F800903F
:10538000B9F1000FF7D10298002835D157B116B105
:1053900008F1040000E0032001463846FFF7DBFA7D
:1053A000069009E016B108F1040100E00321084667
:1053B000DE49096888470690069818B900200DB0A4
:1053C000BDE8F08F069C7B2004F8010B66B10A2033
:1053D00004F8010B002503E0092004F8010B6D1C03
:1053E000A8F10100A842F7DC7D2004F8010B0020A1
:1053F00004F8010B0698E2E7002F77D0BD680EB1E4
:10540000022000E0012082460AF101013846FFF740
:10541000A2FA04460CB90020D1E77B2004F8010B66
:1054200016B10A2004F8010B00202070B86850441F
:10543000B8600998D0F8089008F1010868E0B6B1A2
:1054400041463846FFF787FA04460CB90020B6E714
:105450000020039005E0092004F8010B0398401C8C
:10546000039003984045F6DBB8684044B86039467D
:10547000D9F82000FFF7E3FC3846FFF7A0FAB86040
:105480000EB1022000E00120824651463846FFF767
:1054900062FA04460CB9002091E73A2004F8010BA7
:1054A00016B1092004F8010BB8685044B8603B46B7
:1054B00032464146484600F078FA3846FFF77FFA10
:1054C000B8600EB1012000E00020D9F8001009B149
:1054D000012100E0002100EB010A0AF10101384638
:1054E000FFF739FA044614B9002068E734E0D9F828
:1054F000000010B12C2004F8010B16B10A2004F8AA
:10550000010B00202070B8685044B860D9F80090B2
:10551000B9F1000F93D116B108F1010000E00220AB
:1055200001463846FFF717FA04460CB9002046E753
:105530004EB1002503E0092004F8010B6D1CA8F111
:105540000100A842F7DC7D2004F8010B0020207048
:1055500038682844069005E1029988007349096873
:1055600088470890089808B9002028E70299880021
:105570006E49096888470790079828B96C490898C8
:105580000968884700201AE702988100089801F00E
:1055900052FF02988100079801F04DFF0998D0F85A
:1055A000089008F1010806B1C2442EE00021D9F8A4
:1055B0002000FFF744FC0490079941F825000023E0
:1055C00032464146484600F0F0F929466D1C0590E8
:1055D000089A42F82100049898B1059888B1059876
:1055E00001F012FE8346049801F00EFE0BEB000161
:1055F000891C16B108F1020000E000200844824432
:1056000001E001200190D9F80090B9F1000FCDD14F
:10561000019820B950464549096888470690069880
:1056200008B901200190019818B3002514E00798EB
:1056300050F8250028B1079951F825003C49096820
:105640008847089850F8250028B1089951F8250096
:105650003749096888476D1C02988542E7DB344961
:1056600007980968884732490898096888470020E0
:10567000A5E67B21069801700698441C16B10A2005
:1056800004F8010B00202070002548E05EB10020E6
:10569000039005E0092004F8010B0398401C0390D7
:1056A00003984045F6DB079951F8250001F0ACFD61
:1056B0000090079850F825102046009A01F01AFE35
:1056C000009804443A2004F8010B16B1092004F8AC
:1056D000010B089850F82510204601F071FD08993B
:1056E00051F8250001F090FD04440298401EA842A4
:1056F00002D02C2004F8010B16B10A2004F8010B8B
:1057000000202070079951F8250009490968884749
:10571000089951F825000649096888476D1C0298C8
:105720008542B3DB024905E0480000204C00002020
:1057300050000020079809688847F74908980968C9
:1057400088474EB1002503E0092004F8010B6D1CC9
:10575000A8F10100A842F7DC7D2004F8010B00202D
:1057600004F8010B06982AE62DE9FF4F85B0924612
:105770001E464FF0000B052003900598D0F80880D6
:10578000D946002500200290019003E009F10109AB
:10579000D8F80080B8F1000FF8D1B9F1000F16D198
:1057A0002EB103213046FFF7D6F8834604E00320EC
:1057B000DA49096888478346BBF1000F03D0D8A1B6
:1057C000584601F0FDFC584609B0BDE8F08F002EA8
:1057D00057D0B56801213046FFF7BDF804460CB933
:1057E0000020F1E75B202070B068401CB060059895
:1057F000D0F808802EE0334652460699491C4046B0
:1058000000F0D3F83046FFF7DAF8B060D8F80000BF
:10581000F0B1BAF1000F01D0022000E001200390A6
:105820000399491C3046FFF796F804460CB900204E
:10583000CAE72C2004F8010BBAF1000F02D0202097
:1058400004F8010B00202070B16803980844B06090
:10585000D8F80080B8F1000F02D002980028CAD012
:1058600002213046FFF777F804460CB90020ABE779
:105870005D2004F8010B00202070306800EB050B60
:1058800091E04FEA8900A5490968884707460FB9A2
:10589000002099E74FEA8901384601F0CCFD0598D0
:1058A000D0F8088021E0002352460699491C404662
:1058B00000F07BF8049029466D1C049847F82100FD
:1058C000049870B1049801F09FFC801CBAF1000F9D
:1058D00001D0012100E00021014403980844039015
:1058E00001E001200290D8F80080B8F1000F02D04A
:1058F00002980028D7D0029820B9884903980968EF
:1059000088478346BBF1000F01D101200290029825
:1059100090B1002508E057F8250020B157F8250080
:105920007D49096888476D1C4D45F4DB38467A4946
:1059300009688847002047E75B208BF800000BF1DF
:10594000010400202070002521E057F8250001F017
:105950005BFC019057F825102046019A01F0CAFC23
:1059600001980444A9F10100A8420AD02C2004F8AF
:10597000010BBAF1000F02D0202004F8010B002027
:10598000207057F825006449096888476D1C4D450B
:10599000DBDB38466049096888475D2004F8010B65
:1059A000002004F8010B58460EE72DE9F0410446AB
:1059B0000F4690461D46002614B90020BDE8F08130
:1059C000002D49D0207B072845D2DFE800F0101CCD
:1059D00004282E343C0005212846FEF7BCFF06466D
:1059E00026B1AFF20471304601F0EAFB33E0062144
:1059F0002846FEF7B0FF064626B1AFF214713046D6
:105A000001F0DEFB27E005212846FEF7A4FF06464D
:105A100026B1AFF22471304601F0D2FB1BE02946DB
:105A20002046FEF7DCFF064615E029462046FFF734
:105A3000FFFA06460FE02B46424639462046FFF75E
:105A400093FE064607E02B46424639462046FFF7BE
:105A50007DFC064600BF37E0207B072833D2DFE815
:105A600000F00A1004161C222A00AFF28C70FEF718
:105A70002AFE064627E0AFF29070FEF724FE0646A7
:105A800021E0AFF29470FEF71EFE06461BE00021F7
:105A90002046FEF7A4FF064615E000212046FFF74A
:105AA000C7FA06460FE00023424639462046FFF774
:105AB0005BFE064607E00023424639462046FFF7D4
:105AC00045FC064600BF00BF304677E710B50446E8
:105AD0000023012219462046FFF767FF10BD10B5CD
